:100000000C9434000C94EA020C9446000C944600C4
:100010000C9446000C9446000C9446000C94360355
:100020000C9446000C9446000C9446000C9410036B
:100030000C9446000C9446000C9446000C94460028
:100040000C9446000C9490020C9446000C944600CC
:100050000C9446000C9446000C9446000C94460008
:100060000C9446000C94460011241FBECFEFD4E040
:10007000DEBFCDBF11E0A0E0B1E001C01D92AC3207
:10008000B107E1F70E949D030C9443040C94000017
:100090008FEF8093150110921201109211011092AE
:1000A00021018EE180930C0185E6809316018BB1CE
:1000B0008C788BB98AB183678AB981EA84BD81E083
:1000C00085BD17BC18BC5C9A089540912101582F3A
:1000D00048170CF4542F252F332727FD3095842FF4
:1000E000992787FD9095909581959F4F28173907FF
:1000F00014F4542F519557FF03C02FEF3FEF02C068
:1001000021E030E080910B0187FF03C08FEF9FEF6C
:1001100002C081E090E02817390719F017BC18BC1D
:1001200021C0151614F080E006C05F3711F48FEF80
:1001300002C0852F880F88BD57FD02C080E007C030
:10014000523814F48FEF03C0852F880F819587BD37
:1001500057FF03C05998589A08C0552319F058986A
:10016000599A03C08BB18C7F8BB950930B010895C2
:10017000181614F0EFEF01C0E1E0992787FD909584
:1001800097FF03C0909581959F4F482F80911D0147
:10019000909109018F3158F0892F8F5F8093090169
:1001A000841754F04150409309014F5F05C0191660
:1001B0001CF49150909309018091090187FF02C0BE
:1001C0001092090120910A012F3F69F080911901D5
:1001D00090911A01892B39F480911601882319F026
:1001E0002F5F20930A0120910A01222369F0809158
:1001F000190190911A01892B39F0809116018823F9
:1002000019F0215020930A0180910A01882399F066
:1002100080911D01833078F0809108018F5F809379
:100220000801863078F01092080180912101823017
:100230004CF0815005C0809121018F3719F08F5FFC
:100240008093210180911501893710F46FE715C063
:10025000809115018A3B10F060E00FC0809115017C
:10026000885793E0899FC001112464E070E00E94E8
:10027000DF03709561957F4F615880912101992727
:1002800087FD9095262F30E02817390714F46093E6
:10029000210180910901481B4E9F802D1124089552
:1002A0008C390CF48CE985360CF084E60895982F8F
:1002B0008C59893C08F054C0992309F451C06091CD
:1002C0001101709112017093070160930601892F4B
:1002D000992787FD9095880F991F880F991F209166
:1002E000190130911A01821B930B90931201809394
:1002F00011019C01220F331F280F391F4091040167
:1003000050910501240F351F861B970B880F991FED
:10031000880F991F280F391F30930501209304017E
:10032000215C3F4134F080EC9FE190930501809384
:10033000040180910401909105018054904E34F4A1
:1003400080E490EE90930501809304018091040174
:100350009091050126E0959587952A95E1F70895F6
:1003600080E00895CF92DF92EF92FF920F931F9358
:10037000CF93DF93282F8C59893C08F0BFC02223EC
:1003800009F4BCC02A3114F029E103C0273E0CF463
:1003900027EEC0901101D0901201D0920301C092BB
:1003A0000201C22FDD27C7FDD095CC0FDD1FCC0F7A
:1003B000DD1F8091190190911A01C81BD90BD093B0
:1003C0001201C09311017E010027F7FC0095102F48
:1003D00020910D0130910E0140910F0150911001BB
:1003E000CA01B901E6E0660F771F881F991FEA95D9
:1003F000D1F7621B730B840B950B20E430E040E0D7
:1004000050E00E94F203E20EF31E041F151FE0925B
:100410000D01F0920E0100930F011093100129EECF
:10042000E21623E0F20620E0020720E0120764F063
:1004300088EE93E0A0E0B0E080930D0190930E0170
:10044000A0930F01B093100180910D0190910E01C6
:10045000A0910F01B091100188519C4FAF4FBF4F39
:1004600064F488E19CEFAFEFBFEF80930D019093B0
:100470000E01A0930F01B09310019E012C193D09AC
:10048000220F331F2C0F3D1F03E0220F331F0A954D
:10049000E1F780910D0190910E01A0910F01B091B3
:1004A000100113E0880F991FAA1FBB1F1A95D1F7DF
:1004B000280F391F3093010120930001215C3F4137
:1004C00034F080EC9FE190930101809300018091D2
:1004D0000001909101018054904E34F480E490EE3C
:1004E000909301018093000180910001909101019E
:1004F000F6E095958795FA95E1F701C080E0DF91E8
:10050000CF911F910F91FF90EF90DF90CF900895C2
:10051000F89480E184B984EC8CBD1EBC7894089575
:100520001F920F920FB60F9211248F939F93809179
:100530002501823081F1833028F4882331F0813025
:10054000E1F51FC08330C9F52EC08EB5809324011C
:100550008091190190911A019595879595958795A8
:100560008EBD809124018A3721F410922B0181E005
:1005700021C0809124018B3721F581E080932B01EC
:1005800019C08EB5809316011092140180911D013F
:100590008EBD82E00FC08EB580931501809117014A
:1005A0008EBD83E007C08EB5809324018091280121
:1005B0008EBD84E08093250106C08EB58093240112
:1005C0001EBC109225019F918F910F900FBE0F902E
:1005D0001F9018951F920F920FB60F9211248F93B0
:1005E0009F9389B190E08C7090708C30910511F0E0
:1005F000892B31F48091290190912A01019705C03E
:100600008091290190912A01019690932A0180936B
:1006100029019F918F910F900FBE0F901F901895F9
:100620001F920F920FB60F9211248F938091180191
:10063000863241F487E2809318018091790080939B
:100640001D0107C086E28093180180917900809394
:1006500017018091180180937C0086EC80937A00CA
:100660008F910F900FBE0F901F9018951F920F92B1
:100670000FB60F9211242F933F938F939F9381E096
:10068000809320018091290190912A0120912601D7
:1006900030912701821B930B90931A0180931901CB
:1006A0008091290190912A0190932701809326013E
:1006B0009F918F913F912F910F900FBE0F901F90A0
:1006C0001895F8941092890080E880938800109221
:1006D00080008CE08093810082E080936F0086E24E
:1006E0008093180180937C0086EC80937A0080913F
:1006F0007A0086FDFCCF7894089510922001109224
:100700002A011092290110922701109226011092BD
:100710001A0110921901F89492E09093B00087E0CA
:100720008093B1008EE48093B3009093700081E0D9
:10073000809369008DBB789408951F9315B818B8FD
:100740001BB80E9461030E947D030E9488021092E0
:10075000250110922B01109228010E94480084E686
:1007600080931401809120018823E1F3809114018A
:100770008F5F8093140181508D3320F01092160109
:1007800010921401809116010E94B800182F8091D8
:100790002B01882321F4812F0E94B201182F809110
:1007A0002B01813021F4812F0E945001182F812FBD
:1007B0000E9465001093280110922001D3CF97FB6F
:1007C000092E07260AD077FD04D027D006D00020B6
:1007D0001AF4709561957F4F0895F6F7909581957D
:1007E0009F4F089597FB092E05260ED057FD04D084
:1007F00028D00AD0001C38F45095409530952195AA
:100800003F4F4F4F5F4F0895F6F790958095709545
:1008100061957F4F8F4F9F4F0895AA1BBB1B51E1DE
:1008200007C0AA1FBB1FA617B70710F0A61BB70B60
:10083000881F991F5A95A9F780959095BC01CD0105
:100840000895A1E21A2EAA1BBB1BFD010DC0AA1F11
:10085000BB1FEE1FFF1FA217B307E407F50720F029
:10086000A21BB30BE40BF50B661F771F881F991FA4
:100870001A9469F760957095809590959B01AC01ED
:0A088000BD01CF010895F894FFCFE9
:00000001FF
