:100000000C943E000C9450000C9450000C94500042
:100010000C9450000C9450000C9450000C94500020
:100020000C9450000C9450000C9450000C94500010
:100030000C9450000C9450000C9450000C94500000
:100040000C9450000C9450000C9450000C945200EE
:100050000C9450000C9450000C9450000C945000E0
:100060000C9450000C9450000C9450000C945000D0
:100070000C9450000C9450000C94500011241FBE9E
:10008000CFEFD8E0DEBFCDBF11E0A0E0B1E001C00E
:100090001D92A232B107E1F70E94ED010C940B060C
:1000A0000C9400001F920F920FB60F9211248F93A1
:1000B0009F9380911D018230F1F0833028F48823D2
:1000C00051F0813081F50FC0843009F18430C8F0DF
:1000D000853049F524C09EB5809116018EBD9A37B2
:1000E00021F581E019C08EB5909120019EBD8093CD
:1000F0001C0182E011C08EB580911E018EBD83E08F
:100100000BC08EB5809117018EBD84E005C08EB501
:10011000809118018EBD85E080931D0108C08EB5C9
:100120008DE78EBD02C08EB51EBC10921D019F9141
:100130008F910F900FBE0F901F9018958AB1876016
:100140008AB9539A5C9A549A0F9A179A88B1806C1C
:1001500088B9239A5F9A579A5F9A80E69AEE019738
:10016000F1F75F9880E395E70197F1F757985F986B
:100170001092140110921C010895569A559A81E22A
:100180008093B00099E09093B10081E88093800063
:10019000909381008FEF8093B30084E18093B4004B
:1001A00080EB80938800089580E280937C0086EC49
:1001B00080937A0080917A0086FDFCCF0895F894B0
:1001C000269A84EC8CBD1EBC78940895CF93DF935F
:1001D00080911E01282F30E080911701482F50E0B8
:1001E000EA012296D9011296A417B50724F0E0E09F
:1001F000C217D3070CF4E1E08091180190E0BC0134
:100200006E5F7F4F621773070CF4E1E0A817B90720
:100210000CF4E1E0641775070CF4E1E0C817D907A6
:1002200014F0E13031F4809103018A3048F48F5F9B
:1002300005C080910301882319F081508093030148
:1002400090910301973040F0809114018B7F80934F
:10025000140120E030E012C080911401943030F499
:1002600084608093140121E030E008C0282F30E042
:10027000247030703595279535952795C901DF9104
:10028000CF910895809116018B3A10F010920101E0
:1002900080911601883740F480910201823330F456
:1002A0008F5F8093020102C01092020180910201CF
:1002B000823321F080910101813059F481E08093F3
:1002C0000101809114018E7F8093140120E030E0C1
:1002D00007C08091140181608093140121E030E017
:1002E000C901089580911601909100018D3A20F086
:1002F0009A3038F49F5F03C0992319F0915090937E
:10030000000180910001909114018A3030F49D7FAA
:100310009093140120E030E005C0926090931401A6
:1003200021E030E0C901089580912001883C10F05F
:1003300099E102C0982F955F8091140187FD9EE19D
:1003400084FD93E285FD98E286FD9DE280911A018D
:100350008F5F80931A01893158F080911B018F5F64
:1003600080931B01891710F010921B0110921A0143
:1003700080911B01853048F08550853020F08091B8
:100380001A018C3010F02B9808952B9A08951F9322
:10039000CF93DF9310E0C0E4DCE90E94C9048093AE
:1003A0001E010E94F904809317010E942905809381
:1003B00018010E94E6000E948005809316010E94A9
:1003C00042010E947201CE010197F1F71F5F1733BE
:1003D00021F7DF91CF911F910895CF93DF930E9472
:1003E000E5050E949E000E94DF000E94BD000E9461
:1003F000C7010CC00E948005809316010E94420133
:100400000E9472010E94E2050E94DB05809120019A
:10041000882321F08091140181FFECCF0E94C70155
:100420000E945704C0E4DCE90E94C90480931E01C5
:100430000E94F904809317010E94290580931801F6
:100440000E945905809315010E9466058093190149
:100450000E94730580931F010E94800580931601FE
:100460000E9442010E94E6000E94720180911401E4
:10047000843018F4823060F507C08530A9F08530EB
:1004800060F08830E8F524C00E9449040E944D04C1
:100490000E9451040E94550440C00E9447040E94DB
:1004A0004B040E944F040FC00E9447040E944B045B
:1004B0000E944F04379907C00E945304809116018F
:1004C0000E94D6051AC00E9455040E94DB0515C083
:1004D000379907C00E945304809116010E94D605E7
:1004E00004C00E9455040E94DB05809120018150C8
:1004F000893018F40E94DE0514C00E94E20511C084
:100500000E9449040E944D040E9451040E94550417
:10051000809114018860809314010E94E2050E947A
:10052000DB05369902C00E94AA02CE010197F1F7BD
:100530000E94940179CF81E090E00E94F5058093BC
:1005400020010895682F8093200181E090E00E94AF
:10055000FD0508951F932091170190911E01309180
:10056000180180911C0180FD03C080E090E00EC066
:10057000892F291708F4822F90E0381708F4832F69
:10058000823908F491E081E09827892F182F882379
:1005900011F42B9A01C02B988091140190912001A5
:1005A00081FD0EC091509A3018F489EC809320019F
:1005B000809120018B3009F068C11092200165C143
:1005C000993C11F40E949B0280912001853009F42E
:1005D000B1C0863090F4823009F44CC0833030F4DE
:1005E0008823F1F0813009F04AC140C0833009F41A
:1005F0006BC0843009F043C16BC0883009F4E9C096
:10060000893038F4863009F49BC0873009F037C14F
:10061000BCC08A3009F40DC18A3008F4E0C02FC193
:100620000E945B040E9460040E94650490911E0178
:10063000903508F42AC180911701803508F425C14E
:1006400080911801803508F420C18091140182FF47
:1006500006C0112309F019C1903A08F016C181E0D3
:100660008093200181E090E061E021C00E945E045F
:1006700082E002C10E945E040E946A04813051F04F
:10068000813008F402C1823061F09091140183300E
:10069000B1F410C08091140180698093140183ED3E
:1006A000EBC083E08093200181E090E063E00E9452
:1006B000FD05EBC090619093140184EDDDC0906F57
:1006C0009093140185EDD8C00E945E0484E0D4C0EC
:1006D0000E945E0480911801803550F40E945B04F2
:1006E0000E9460041092200181E090E060E0DFCF82
:1006F0000E946A04813049F0813008F4C6C082301B
:1007000009F4C3C0833079F407C080911401806973
:100710008093140186EDB0C085E08093200181E0D4
:1007200090E065E0C4CF80911401806F8093140144
:1007300087EDA2C00E945B040E94630486E09CC017
:100740000E945B040E9463040E947F04813041F098
:10075000813008F49AC0823051F0833079F42BC094
:1007600080911401806A809314018DED85C087E02B
:100770008093200181E090E067E099CF809114019F
:10078000806F809314018FED77C00E9463040E94F4
:100790007F04813049F0813008F477C0823009F459
:1007A00074C0833079F407C080911401806A80930B
:1007B000140180EE61C088E08093200181E090E028
:1007C00068E075CF80911401806F8093140181EEF1
:1007D00053C00E9460040E94680489E04DC00E94DA
:1007E00060040E9468040E949D04813051F08130B1
:1007F00008F44BC0823061F0909114018330A1F471
:100800000EC080911401806C8093140187EE34C077
:100810008AE08093200181E090E06AE048CF906414
:100820009093140188EE28C0906F9093140189EE84
:1008300023C00E9468040E949D04813039F08130F9
:1008400020F1823011F1833089F407C080911401C6
:10085000806C809314018AEE0FC01092200181E019
:1008600090E060E00E94FD058BE006C080911401DD
:10087000806F809314018BEE8093200106C00E944C
:100880005B040E9460040E9465041F910895589AB9
:10089000089558980895599A0895599808955A9A1C
:1008A00008955A9808955B9A08955B9808955C9806
:1008B00008955C9A08952898209A0895209808959C
:1008C0002998219A0895219808952A98229A08959E
:1008D00022980895F89486B190E082709070959572
:1008E0008795409A389A409A000000000000000066
:1008F00026B13898409878942270820F0895F89421
:1009000086B190E08870907053E0959587955A95E0
:10091000E1F7429A3A9A429A000000000000000073
:1009200026B13A984298789430E028703070359526
:10093000279535952795820F0895F89486B190E014
:100940008072907075E0959587957A95E1F7449A55
:100950003C9A449A000000000000000026B13C9838
:100960004498789430E02072307064E03595279593
:100970006A95E1F7820F0895806280937C0086EC8F
:1009800080937A0080917A0086FDFCCF8091790077
:10099000089580911101809310018091120180933C
:1009A0001101809113018093120181E280937C00F8
:1009B00086EC80937A0080917A0086FDFCCF30919E
:1009C0007900333008F433E0335030931301209131
:1009D00011018091100190E0820F911D2091120170
:1009E000820F911D830F911D9695879596958795FA
:1009F000089580910D0180930C0180910E018093E8
:100A00000D0180910F0180930E0182E280937C00A2
:100A100086EC80937A0080917A0086FDFCCF30913D
:100A20007900333008F433E0335030930F012091D4
:100A30000D0180910C0190E0820F911D20910E011B
:100A4000820F911D830F911D969587959695879599
:100A50000895809109018093080180910A01809393
:100A6000090180910B0180930A0183E280937C004D
:100A700086EC80937A0080917A0086FDFCCF3091DD
:100A80007900333008F433E0335030930B01209178
:100A900009018091080190E0820F911D20910A01C7
:100AA000820F911D830F911D969587959695879539
:100AB000089584E280937C0086EC80937A00809194
:100AC0007A0086FDFCCF80917900089586E28093BC
:100AD0007C0086EC80937A0080917A0086FDFCCFC2
:100AE00080917900089586E280937C0086EC809363
:100AF0007A0080917A0086FDFCCF8091790008957C
:100B0000809104018823A1F4E4E0F1E020E296EC76
:100B100020937C0090937A0080917A0086FDFCCF30
:100B200080917900819341E0E830F40789F71AC099
:100B30008091050180930401809106018093050155
:100B4000809107018093060180E280937C0086EC0F
:100B500080937A0080917A0086FDFCCF80917900A5
:100B600080930701209105018091040190E0820F9C
:100B7000911D20910601820F911D20910701820F86
:100B8000911D969587959695879525E430E0AC0163
:100B9000429FC001439F900D529F900D1124B6E0DB
:100BA00096958795BA95E1F78F5F08958195845D55
:100BB0008093B40008951092B400089580EB809360
:100BC000880008951092880008952898209A2998FE
:100BD000219A2A98229A0E949B02809120018F3F9D
:100BE00019F480E00E94A2020895F999FECF92BD07
:100BF00081BDF89A992780B50895262FF999FECFDF
:100C00001FBA92BD81BD20BD0FB6F894FA9AF99A29
:0A0C10000FBE01960895F894FFCF7F
:00000001FF
